:100000000C94BE020C9402030C9402030C940203A1
:100010000C9402030C9402030C9402030C9402034C
:100020000C9402030C9402030C94F6260C94C8273B
:100030000C94741D0C9402030C9402030C940203A0
:100040000C9402030C9402030C9402030C9402031C
:100050000C9402030C94DB1D0C9402030C94020319
:100060000C9402030C9402030C9402030C940203FC
:100070000C9402030C9402030C9402030C940203EC
:100080000C9402030C9402030C9402030C940203DC
:100090000C9402030C9402030C9402030C940203CC
:1000A0000C9402030C9402030C940203E503EB038B
:1000B000EF03F203F603FA03FE03020407040B0442
:1000C0000F04130416041A041E04220426042B042D
:1000D000451345137F137F13BE13E0137615761572
:1000E00026147615CD14CD1444154B1576157115BF
:1000F000DA14DA14DA14DA14DA14DA14DA14DA1490
:10010000DA14DA14DA14DA14DA14DA14DA14DA147F
:10011000EC14FC1403150A1514150A160A161D16FC
:100120001D1613161D161D161D160A160A1619166B
:100130001D161D1619162D28542842295428422907
:100140009C28BF2842291529242907634236B79BDA
:10015000D8A71A39685618AEBAAB558C1D3CB7CC27
:100160005763BD6DEDFD753EF6177231BF0000009F
:10017000803F05A84CCDB2D44EB93836A9020C50F8
:10018000B9918688083CA6AAAA2ABE000000803F32
:1001900000F035001E001F00200021002200230077
:1001A00024002500260027002D002E002A002A000A
:1001B0002B00000014001A000800150017001C0096
:1001C00018000C00120013002F003000310039001D
:1001D000000004001600070009000A000B000D00D3
:1001E0000E000F003300340028000000E10064001E
:1001F0001D001B000600190005001100100036004C
:10020000370038000000E5000151E000E300000085
:10021000E2002C0000002C0000002C000000000078
:10022000E6000000E700E40029003A003B003C0043
:100230003D003E003F0040004100420043004400BA
:1002400045004C004C00010000000100A900010025
:100250000100010001004B0052004E004600470023
:100260004800280039000000AC00AA00AB000100E3
:1002700001004A00500051004F004D0001000100F4
:100280000000E1006400BA5CBB5CC25CC15CC05CA5
:10029000BF5C0100BE5CBD5C38000000E5000100F1
:1002A0000100010000000100010000000100000049
:1002B00001000000010001000100010001006801CF
:1002C000F000B40078005A007F3F1F64321464329B
:1002D00014783C1E1E140A050000000000010101F4
:1002E00001010101010102020202020202020203F3
:1002F00003030303030303040404040404050505C2
:100300000505060606060607070707080808080980
:1003100009090A0A0A0A0B0B0B0C0C0C0D0D0D0E29
:100320000E0F0F0F101011111112121313141415B8
:100330001516161717181819191A1A1B1C1C1D1D2B
:100340001E1F1F202021222223242525262727287F
:10035000292A2B2B2C2D2E2F2F30313233343536AA
:10036000363738393A3B3C3D3E3F404142434446B4
:100370004748494A4B4C4D4F505152535556575888
:100380005A5B5C5E5F606263646667696A6C6D6E2F
:10039000707173747678797B7C7E808183848688A3
:1003A0008A8B8D8F91929496989A9B9D9FA1A3A5DD
:1003B000A7A9ABADAFB1B3B5B7B9BBBDBFC1C4C6DB
:1003C000C8CACCCFD1D3D6D8DADCDFE1E4E6E8EB9B
:1003D000EDF0F2F5F7FAFCFF0403300000000A0329
:1003E00044005A0036003000000010034B00420069
:1003F0004400460061006E0073000000040309041D
:1004000009026D00040100A0FA09040000010301C3
:1004100001000921110100012240000705810308A4
:10042000000A090401000103010200092111010071
:1004300001224D000705820308000A090402000199
:100440000300000009211101000122360007058385
:100450000308000A09040300010300000009211138
:100460000100012239000705840320000112011058
:100470000100000008EDFE602201000102030105F9
:10048000010906A101050719E029E71500250195D5
:100490000875018102050819012905950575019165
:1004A000029501750391010507190029F71500252B
:1004B0000195F875018102C005010980A10185023D
:1004C0001601002603001A81002A83007510950189
:1004D0008100C0050C0901A1018503160100269CBD
:1004E000021A01002A9C02751095018100C00501C5
:1004F0000902A1010901A100050919012905150039
:10050000250195057501810295017503810105019C
:10051000093009311581257F950275088106093852
:100520001581257F950175088106050C0A3802158D
:1005300081257F950175088106C0C005010906A1C6
:1005400001050719E029E7150025019508750181C6
:1005500002950175088101050819012905950575A0
:100560000191029501750391010507190029FF15F5
:100570000026FF00950675088100C00011241FBEEB
:10058000CFEFDAE0DEBFCDBF04B603FE24C080911A
:10059000A7029091A802A091A902B091AA02873067
:1005A000904BA740B04BB9F41092A7021092A8024A
:1005B0001092A9021092AA0214BE84B7877F84BF4A
:1005C00088E10FB6F89480936000109260000FBE2F
:1005D000E0E0F8E3099511E0A0E0B1E0E4E9FAE534
:1005E00002C005900D92AE33B107D9F712E0AEE329
:1005F000B1E001C01D92A73AB107E1F70E942224A1
:100600000C94482D0C9400000C945C09229A2A9AB0
:1006100008950E945B090C9406030C947F06CF9307
:10062000DF93EC01611120C00E94121C282F22725E
:1006300020933E013A81809102019091030133237E
:1006400041F0222311F065E301C069E20E94071D19
:1006500007C0222311F065E301C069E20E94121D68
:10066000DF91CF910C94DF1BDF91CF91089581E052
:10067000089581E008950C9439030E94F8152FEF36
:1006800084E39CE0215080409040E1F700C00000EE
:100690000C94011EFF920F931F93CF93DF938C0155
:1006A000FC01C081D18180919301811113C08281AD
:1006B000882349F0CE010E94401BF82E682FCE01FE
:1006C0000E94E61A04C0CE010E94141BF82EBE013F
:1006D0008F2D04C0CE010E94401BBE010E948506E2
:1006E000EC01B8010E943B03882309F491C2B801D0
:1006F000CE010E940F09882309F48AC2C23CFCE59E
:10070000DF0741F4F8018281882309F481C20E9445
:10071000B20C7EC2C33C8CE5D80708F039C1CB3B94
:100720009CE5D90761F4F8018281882309F470C23D
:100730000E94121C8272E1F00E94530D69C2CC3BF0
:10074000ECE5DE07C0F0CE3B9CE5D90709F4F1C02B
:1007500008F003C1CC3BFCE5DF0709F0F2C0F8016B
:100760008281882309F454C20E94121C827221F3F0
:100770000E94490D4DC2C531FCE5DF0708F0A4C059
:10078000C2308CE5D80708F478C0F801828188234C
:1007900009F47FC00E94711C811102C00E944B1C91
:1007A0000E948E1C90E09093980280939702FE0125
:1007B000E350FC45E231F10520F4EA5AFF4F0C9476
:1007C000EF2C80919702816003C080919702826034
:1007D000809397024BC0809197028460F9CF8091FB
:1007E000970213C0809197028061F2CF80919702A7
:1007F0008062EECF809197028064EACF8091970269
:100800008068E6CF8091970284608860E1CF809114
:1008100097028E7FDDCF809197028D7FD9CF809117
:1008200097028B7FD5CF8091970213C0809197025A
:100830008F7ECECF809197028F7DCACF8091970215
:100840008F7BC6CF809197028F77C2CF809197021E
:100850008B7F877FBDCF9091970297FB882780F988
:1008600021E0822780FB97F990939702809197026D
:100870000E94921C0E94F815CBC1C1159CE5D907B6
:1008800081F0C130DC45A9F081E080934401809380
:100890004501C801DF91CF911F910F91FF900C94FA
:1008A0003703F8018281882309F4B2C10E943D0315
:1008B000AFC1F8018281882309F4AAC180912B027B
:1008C000816080932B02A4C1C531FCE5DF0729F5C7
:1008D0000E94121C382FF801228180910201909110
:1008E0000301222371F03A7A21E009F420E02093F9
:1008F0003F01222311F065E301C069E20E94071D58
:1009000009C020913F01222311F065E301C069E293
:100910000E94121D0E94DF1B7BC1CA3BDC4509F00F
:10092000B3CFF8018281882309F472C10E94900D2F
:100930006FC1F8018281882309F46AC10E94430CC7
:1009400067C1CD3BDC4509F09FCFF8018281882348
:1009500009F45EC10E942A0C5BC1F8018281C03C8F
:10096000FCE5DF0731F4882309F452C10E947D0CB5
:100970004FC1C13CDC4530F4882309F449C10E94D1
:10098000620C46C1882309F443C10E94970C40C100
:10099000C93CECE5DE0749F4F8018281882309F4BB
:1009A00037C188E10E94CC0C33C1CA3CFCE5DF07AB
:1009B00008F088C0C53C8CE5D807B1F4F801828105
:1009C000882309F425C10E94F70A66307105810564
:1009D000910540F00E94F70A683071058105910584
:1009E00008F4C6CE86E0DECFC63C9CE5D90728F5E4
:1009F000C33CECE5DE0739F4F8018281882309F471
:100A000007C181E0CFCFC43CDC4509F03DCFF80100
:100A10008281882309F4FCC00E94F70A62307105C4
:100A20008105910540F00E94F70A65307105810546
:100A3000910508F49DCE82E0B5CFF8018281C73CD4
:100A4000FCE5DF07A1F4882309F4E2C00E94F70A5D
:100A50006F3071058105910540F00E94F70A6431FD
:100A600071058105910508F483CE8FE09BCFC83CCA
:100A7000DC45A0F4882309F4CBC00E94F70A693052
:100A800071058105910540F00E94F70A6E307105ED
:100A90008105910508F46CCE89E084CF882309F4A0
:100AA000B7C00E94F70A653171058105910540F0D4
:100AB0000E94F70A673171058105910508F458CE47
:100AC00085E170CFCC3CECE5DE0739F5F801828199
:100AD000882361F0109245010E94A61D9093430166
:100AE0008093420180E20E94F51292C080914501FC
:100AF00081110FC080914201909143010E94B21D6B
:100B0000883C910530F487E20E949C1187E20E94A4
:100B1000941280E20E94FC127BC0CD3CFCE5DF0712
:100B200008F041C0CA3C8CE5D807B1F4F8018281D5
:100B3000882309F46DC00E94F70A693171058105A7
:100B4000910540F00E94F70A623271058105910516
:100B500008F40ECE89E126CFCB3CDC4509F094CEDB
:100B6000F8018281882351F0109244010E94A61D51
:100B7000909341018093400182E0B5CF8091440180
:100B800081110FC080914001909141010E94B21DDE
:100B9000883C910530F486E20E949C1186E20E9416
:100BA000941282E0B7CFC03DECE5DE0731F4F801E6
:100BB0008281882369F180E009C0C13DFCE5DF073F
:100BC00041F4F8018281882319F182E00E94BC245B
:100BD0001FC0CD3CDC4509F057CEF8018281811160
:100BE00079CF80914501811194CF809142019091FC
:100BF00043010E94B21D883C910508F08ACF80E233
:100C00000E94FC1288E20E949C1188E20E949412C9
:100C100080E0DF91CF911F910F91FF9008950C9488
:100C20000403CF92DF92EF92FF92863030F481116D
:100C300005C0909180009F7D04C085E09091800068
:100C4000906290938000282F30E0AFEFBFEF0E94BA
:100C5000862C25E030E040E050E00E94CD2CC90118
:100C60002C3764E1360728F469E070E00E94A52C77
:100C700029C0DA01C9018A50974DAF4FBF4F66278F
:100C8000782F892F9A2F25EF38E241E050E00E941B
:100C9000CD2C69017A01CA01B9010E94952C9B01F2
:100CA000AC01C701B6010E94952CBB27A92F982F34
:100CB000872F009721E0A207B10511F0BC0102C007
:100CC0006FEF7FEF70938B0060938A00FF90EF903F
:100CD000DF90CF900895269A2E9882E2809380002C
:100CE00089E1809381008FEF9FEF9093870080933D
:100CF00086000C94A6210E946B060C9409030895AB
:100D00000C940D0380E090E008959FE0799FF0013E
:100D100011249BE4899FE00DF11D1124E60FF11DC4
:100D2000EE0FFF1FEE56FE4F859194910895880FA8
:100D3000991F80579E4FFC01859194910895CF9300
:100D4000DF930E9485060E946508EC01811521E56C
:100D5000920708F044C0C11580E5D80708F01FC10C
:100D6000C83ED10510F5C03ED10508F0AAC1C83A69
:100D7000D10578F4C53AD10508F09CC0C130D10541
:100D800009F49FC108F456C1C430D10508F099C1D7
:100D900051C1CD3BD10508F498C0C03CD10508F441
:100DA00049C1CE01805C9109E9C0C11520E3D20799
:100DB00080F4C11580E2D80708F0DEC0C03FD1053D
:100DC00008F438C1CF3FD10511F008F07AC1D065E1
:100DD00078C1C11520E4D20708F0DEC0D3C0C11528
:100DE00086E5D80768F5C11525E5D20708F00DC1DD
:100DF000C11583E5D80750F4C11522E5D20708F0E4
:100E0000EAC0DC2FCC27C16FD06A5BC1C11584E575
:100E1000D80708F0F5C08C2F8695869520E2829F32
:100E2000C00111249E0123703327C1E0D0E002C02D
:100E3000CC0FDD1F2A95E2F7C82BD92BDA6841C108
:100E4000C53B2CE5D20709F4ECC098F4C33B2CE574
:100E5000D20709F4E0C008F0E1C0CE0198558F3FF9
:100E6000910511F008F0E6C0DC2FCC27C06FD06AE6
:100E700028C1C83B2CE5D20709F4D9C060F4C63BB1
:100E80002CE5D20709F4D0C0C73BDC4509F0D2C03D
:100E9000C0E0D2ED16C1CE0190568115904208F007
:100EA000C9C08D2F8F710E94E108DD27D0628F713C
:100EB000D82B07C1C53AD10509F4BFC0C63AD10540
:100EC00009F4BEC0C3E8D0E4FCC0C83AD10509F4B7
:100ED000BAC0C93AD10509F4B9C0CA3AD10509F472
:100EE000B8C0CB3AD10509F4B7C0CC3AD10509F462
:100EF000B6C0CB3BD10509F4B5C0CC3BD10509F454
:100F0000B4C0CD3AD10509F4B3C0C03BD10509F452
:100F1000B2C0CE3AD10509F4B1C0CF3AD10509F437
:100F2000B0C0C13BD10509F4AFC0C23BD10509F443
:100F3000AEC0C33BD10509F4ADC0C43BD10509F433
:100F4000ACC0C53BD10509F4ABC0C63BD10509F423
:100F5000AAC0C73BD10509F4A9C0C83BD10509F413
:100F6000A8C0C93BD10509F4A7C0CA3BD10509F007
:100F7000A6C0CAE2D6E4A5C0CE019F700E94970623
:100F8000EC019FC0CE019927D3FF03C0EC01D86CC0
:100F900098C0EC01D06C95C0DF70D06A92C02C2F45
:100FA000237081E090E002C0880F991F2A95E2F734
:100FB0009C689E0174E0369527957A95E1F7237039
:100FC000922BCF70C695C69520E2C29FE0011124F6
:100FD000C82BD92B76C08C2F8695869520E2829FD0
:100FE000C00111249E0123703327C1E0D0E002C06C
:100FF000CC0FDD1F2A95E2F7C82BD92BDC6861C026
:10100000DC2FCC27C46FD06A5CC0CF71DD27DC2F0A
:10101000CC27D06256C0C0E0D4ED53C0C0E0D5EDBF
:1010200050C0C0E0D1ED4DC0C0E0D0ED4AC0C0E03E
:10103000D3ED47C0C0E0D0E044C0C1E8D0E441C037
:10104000C2E8D0E43EC0C2EED4E43BC0C9EED4E472
:1010500038C0CAEED4E435C0C5EBD4E432C0C6EB28
:10106000D4E42FC0C3EBD4E42CC0C4EBD4E429C037
:10107000C7EBD4E426C0CCECD4E423C0CDECD4E45C
:1010800020C0C3E8D5E41DC0CAE8D5E41AC0C2E94F
:10109000D5E417C0C4E9D5E414C0C1E2D6E411C058
:1010A000C3E2D6E40EC0C4E2D6E40BC0C5E2D6E487
:1010B00008C0C6E2D6E405C0C7E2D6E402C0C0E07C
:1010C000D4E4CE01DF91CF9108958238910549F1A2
:1010D000B0F48133910509F459C048F4893291057F
:1010E00009F44FC08A32910509F455C0089585333B
:1010F000910509F441C08933910599F00895833E23
:10110000910531F138F4803E910591F0823E9105D0
:10111000A9F00895863E910501F1873E910539F1C8
:1011200008952091970220FD3BC021FD39C008950C
:101130008091970280FF34C089E341C0809197027B
:1011400082FF32C08091970284FF2CC080E037C0BC
:101150008091970282FD28C0F5CF8091970283FF8E
:1011600025C08091970284FDF1CF87EE28C0809141
:10117000970283FD1BC0F5CF8091970285FF18C0B1
:1011800019C08091970285FF15C012C08091970207
:1011900086FF12C013C08091970286FF0FC00CC05B
:1011A00080EE0DC083EE0BC082EE09C086EE07C054
:1011B00085E305C089E203C081E301C08AE290E0D3
:1011C0000895CF93C82F0E948E1C282F30E03093B3
:1011D00098022093970282FF0DC08C2F887188306F
:1011E00019F4C77FC46006C08C2F8471843011F459
:1011F000CB7FC86023FF0DC08C2F8871883119F414
:10120000C77EC46106C08C2F8471843111F4CB7EFB
:10121000C86124FDC77E8C2FCF9108950895CF9388
:10122000DF93EC01FB018281811102C081E040C0AB
:1012300080915301811125C0C631DC45B9F70E9468
:101240000E0981E0809353010E94A61D90935201E4
:10125000809351011092460110924801109247016B
:1012600010924A011092490110924C0110924B01C8
:1012700010924E0110924D011092500110924F01A8
:1012800016C080915101909152010E94B21D883C7C
:10129000910560F680914601E82FF0E0EE0FFF1F08
:1012A000E95BFE4FD183C0838F5F8093460180E06E
:1012B000DF91CF9108950895089585B7806885BF1F
:1012C00085B7806885BFA4E2B1E021E030E08D9170
:1012D000E82FE295EF70F0E041A18F70B90102C0F4
:1012E000660F771F8A95E2F7CB01962F90954923D9
:1012F00041A392A1982B92A371E0A932B70739F7C5
:10130000A5E1B1E021E030E08D91E82FE295EF70AA
:10131000F0E041A18F70B90102C0660F771F8A9576
:10132000E2F7CB01962F9095492341A392A1982BE8
:1013300092A371E0A432B70739F7EEE5F1E0A4E536
:10134000B1E0119211921D921D9281E0E836F807EA
:10135000C1F70C947B064F925F927F928F929F927F
:10136000AF92BF92CF92DF92EF92FF920F931F93B3
:10137000CF93DF9304E211E0C4E5D1E0EE24E394DF
:10138000F12C99249394BE01A880B9801982188207
:10139000D8012D918D01E22FE295EF70F0E081A14F
:1013A0002F70A70102C0440F551F2A95E2F79A013A
:1013B000842B81A382A1842E8094882182A350EA69
:1013C0005A95F1F745E1442E41E0542E80E090E03B
:1013D000D2014D912D01C42EC2943FE0C322D12CE5
:1013E000D60190967C90C880D9804F70D70102C0FA
:1013F000AA0FBB1F4A95E2F77A2241F4A701082EF3
:1014000002C0440F551F0A94E2F702C040E050E0CA
:101410004C295D295983488301968F309105C1F687
:1014200081A1882181A382A1822B82A32296FB0124
:1014300080819181A816B90641F0909268010E94BE
:10144000A61D90936A0180936901F1E009321F079C
:1014500009F099CF809168018823B1F080916901EA
:1014600090916A010E94B21D069770F0E4E5F1E0E8
:10147000AEE5B1E0819191918D939D9341E0EE3580
:10148000F407C1F7109268010E940F0681E0DF9116
:10149000CF911F910F91FF90EF90DF90CF90BF9071
:1014A000AF909F908F907F905F904F900895E82F1E
:1014B000F0E0EE0FFF1FE25AFE4F80819181089508
:1014C0000895DF92EF92FF920F931F93CF93DF93D4
:1014D000662309F44AC0E42FF0E0AFEFB0E0A61BAA
:1014E000B109BF01A69FE001A79FD00DB69FD00D07
:1014F0001124FD2FDD2E7B01ED1AF1080CE310E025
:10150000B8010E94A52CEB01BC01E69EC001E79E3C
:10151000900DF69E900D1124B8010E94A52CC230AA
:10152000D105B1F040F4209779F0219709F58F2F7C
:10153000D42E461B20C0C430D10599F068F0259701
:10154000B9F4842F861B17C08F2FD62EDF0E13C041
:10155000862F8F0FD42E03C0D42ED61A842F4F2F50
:101560000AC0842F462F4F0F06C0842FD42E03C0ED
:1015700080E0D12C40E0E42FF0E0E852FD4F4491B0
:10158000ED2DF0E0E852FD4F9491E82FF0E0E852A5
:10159000FD4FE491D90111964C9311979C931296AB
:1015A000EC93DF91CF911F910F91FF90EF90DF901F
:1015B000089588E090E00C94082DAB01BC0188E010
:1015C00090E00C94262D83E08093590210925A02E9
:1015D0008FEF80935B0280935C026091590270915F
:1015E0005A0280915B0290915C020C94DD0A60913A
:1015F000590260FF06C066956F7370E080E090E06E
:10160000089560E070E0CB0108958091590280FF59
:1016100006C060E170E081E692E00C944B10E3E6D6
:10162000F2E0DF0111971C92DF0112971C921082E9
:10163000339682E0E339F807A1F7EBCF9091590296
:1016400090FF10C0E3E6F2E0DF0111978C93DF0119
:1016500012976C934083339692E0E339F907A1F730
:101660000C94050B0895CF92DF92EF92FF920F93A7
:101670001F93CF93DF9300D01F92CDB7DEB7F82E24
:10168000C92ED62EE42E0091590210915A022091B3
:101690005B0230915C0200935D0210935E02209326
:1016A0005F02309360028091590280FF1EC09E014C
:1016B0002F5F3F4F8F2D0E94610A80915D02F0FAEB
:1016C00087F980935D02F69420915E0220782F299D
:1016D000C0FA27F920935E02D0925F02E092600286
:1016E0004B8169818A810E941E0B0F900F900F9091
:1016F000DF91CF911F910F91FF90EF90DF90CF90EE
:1017000008958F929F92AF92BF92CF92DF92EF9205
:10171000FF920F931F93CF93DF93EC01862E942EAD
:101720008091590280FF89C0982F9E77923021F4D2
:10173000CE010E94330B57C0E82FE695EF739EE36E
:101740009E0F9F73943018F490905C024CC09AE303
:101750009E0F9F73993070F4881F8827881F90917F
:101760005A02292F220FC22FC82B97FB992790F9D5
:10177000D92F39C087E28E0F8F738A30A0F5F0E041
:101780007997E0FF02C04FEF01C041E0EE7FE254E5
:10179000FD4F2591349184E0369527958A95E1F7A0
:1017A00042036001439FD00C11247E0188E9E81AAE
:1017B0008EEFF80A01E612E098E6A92EBB24B39456
:1017C000C701B5010E94A52C9801492D682D0E94E2
:1017D000610AEC0CFD1C0D5F1F4F92E001391907E7
:1017E00079F70E94050B809159029C2FC0FB87F965
:1017F00080935902969580915A028078892BD0FB6C
:1018000087F980935A0280925B0290925C02609109
:10181000590270915A0280915B0290915C02DF91B3
:10182000CF911F910F91FF90EF90DF90CF90BF90DD
:10183000AF909F908F900C94DD0ADF91CF911F9114
:101840000F91FF90EF90DF90CF90BF90AF909F905F
:101850008F90089520915902221F2227221F309134
:101860005A02432F440F842F822B37FB992790F97C
:10187000089668E671E00E94B92C40915C02609184
:101880005B020C94810B20915902221F2227221FF8
:1018900030915A02432F440F842F822B37FB992714
:1018A00090F9883091051CF4805A9E4F01C008972A
:1018B00068E671E00E94B92C40915C0260915B0285
:1018C0000C94810B60915B02862F90E0883F91051C
:1018D00014F4685F01C06FEF80915902881F882758
:1018E000881F90915A02292F220F97FB992790F970
:1018F00040915C02822B0C94810B60915B02862FDD
:1019000090E0089714F0685001C060E0809159029F
:10191000881F8827881F90915A02292F220F97FB32
:10192000992790F940915C02822B0C94810B409195
:101930005C02842F90E0883F910514F4485F01C059
:101940004FEF80915902881F8827881F90915A0273
:10195000292F220F97FB992790F960915B02822B28
:101960000C94810B40915C02842F90E0089714F056
:10197000485001C040E080915902881F8827881F85
:1019800090915A02292F220F97FB992790F9609185
:101990005B02822B0C94810B9091590290FF44C002
:1019A0009178811102C0926003C0833220F0946468
:1019B0009093590205C08F73880F892B8093590229
:1019C0006091590270915A0280915B0290915C0281
:1019D0000E94DD0A80915902982F9E77923019F467
:1019E0001092800110C0982F96959F732EE3290FB7
:1019F0002F73273120F491E09093800104C0995D0A
:101A00009F739A3068F3881F8827881F90915A0225
:101A1000292F220F97FB992790F940915C02609142
:101A20005B02822B0C94810B089580912B028160C4
:101A300080932B0281E0809381010E94711C8111AF
:101A400004C00E944B1C0E94E30A0E94D90A6093C2
:101A5000590270935A0280935B0290935C026E77F6
:101A600061F40E94E30A0E94D90A609359027093BC
:101A70005A0280935B0290935C0281E08093800124
:101A80008091590280FF04C086958F730C94CC0C12
:101A900008958091590286958F738F5F833208F085
:101AA00081E00C94CC0C8091590286958F73815003
:101AB00009F482E20C94CC0CCF93DF93C9E5D2E019
:101AC0008881816088836091590270915A02809167
:101AD0005B0290915C020E94DD0A888186958F737B
:101AE000DF91CF910C94CC0CE9E5F2E080818E7F00
:101AF00080836091590270915A0280915B029091AB
:101B00005C020E94DD0A109280012FEF80E792E0D4
:101B1000215080409040E1F700C000000C94050B7C
:101B20008091590280FD0C94740D0C945C0DCF9340
:101B3000C82F80917E0190917F010E94B21DEC2FF1
:101B4000F0E0EC52FD4FE491F0E08E179F0708F4AF
:101B500042C00E94A61D90937F0180937E016091F8
:101B60007D0170E080E090E00E94A42A20E030E057
:101B70004FE753E40E94DD292BED3FE049E450E4B8
:101B80000E94C52B0E94282C0E944A2A2BE43AE38B
:101B90004EE25FE30E94782920EF3BEF48ED52E4EC
:101BA0000E94C52B0E94762A462F80915902881FD9
:101BB0008827881F90915A02292F220F97FB992777
:101BC00090F960915B02822B0E94330B80917D0122
:101BD0008F5F80937D01CF910895CF93C82F80911F
:101BE0007B0190917C010E94B21DEC2FF0E0EF523E
:101BF000FD4FE491F0E08E179F07E8F00E94A61DCC
:101C000090937C0180937B0140915C0260915B0228
:101C10008091790190917A010E94330B8091790132
:101C200090917A01019668E671E00E94A52C90934C
:101C30007A0180937901CF910895DF92EF92FF921C
:101C40000F931F93CF93DF93D82E809177019091BC
:101C500078010E94B21DED2DE695F0E0E253FD4FB4
:101C6000E491F0E08E179F07F0F10E94A61D90937B
:101C700078018093770101E612E0C0E0D0E068E6E9
:101C8000E62EFF24F39480917501909176018C0FDC
:101C90009D1FB7010E94A52C980140915C026091A4
:101CA0005B020E94610A66960D5F1F4FC03681E09D
:101CB000D80749F70E94050B2091750130917601F4
:101CC000D0FE0BC0C901019668E671E00E94A52C08
:101CD000909376018093750106C0215031093093AD
:101CE000760120937501DF91CF911F910F91FF90A5
:101CF000EF90DF900895AF92BF92CF92DF92EF9274
:101D0000FF920F931F93CF93DF93C82F80FD03C0E3
:101D1000BB24B39402C0BB24BA9480917301909108
:101D200074010E94B21DC695EC2FF0E0E553FD4F03
:101D3000E491F0E08E179F0708F465C00E94A61D8D
:101D40009093740180937301F1E6EF2EF2E0FF2E81
:101D500003E612E0C0E0D0E0F80131971082F7010D
:101D60001082F8011082E4E0CE2ED12CA12C8091BB
:101D700072018A0D87FD805F992787FD9095C817AE
:101D8000D907E9F480915C028C9DA0018D9D500DD6
:101D90001124559547955595479580915902881F6F
:101DA0008827881F90915A02592F550F97FB992722
:101DB00090F9970160915B02852B0E94610AAB0C40
:101DC000F1E0CF1AD108C114D10489F6219683E03D
:101DD000E80EF11C0D5F1F4FC031D10509F0BCCFDB
:101DE0000E94050B8091720191E0B91206C0811129
:101DF00002C08FE006C0815004C090E001968F7051
:101E0000992780937201DF91CF911F910F91FF90DD
:101E1000EF90DF90CF90BF90AF900895EF92FF9238
:101E20000F931F93CF93DF93C82F809170019091F0
:101E300071010E94B21DEC2FF0E0E853FD4FE491D8
:101E4000F0E08E179F0708F466C00E94A61D9093CD
:101E5000710180937001E3E6F2E0DF0111971C92BB
:101E6000DF0112971C921082339682E0E339F80763
:101E7000A1F703E612E0A1E6EA2EA2E0FA2EC0E006
:101E8000D0E080916F01992787FD9095C817D907F9
:101E9000ECF080910101992787FD90958C179D07A3
:101EA000ACF080915902881F8827881F90915A02B0
:101EB000592F550F97FB992790F9970140915C0294
:101EC00060915B02852B0E94610A07C0F80131977F
:101ED0001082F7011082F80110822196F3E0EF0ED4
:101EE000F11C0D5F1F4FC031D10559F60E94050B43
:101EF0002091000180916F01820F80936F0190917A
:101F00000101920F90930101191614F48F301CF007
:101F1000219520930001DF91CF911F910F91FF90A8
:101F2000EF900895EF92FF920F931F93CF93DF935B
:101F300080916D0190916E010E94B21D883E934088
:101F4000C8F10E94A61D90936E0180936D01C0910F
:101F50006B01D0916C012196C170DD27D0936C018B
:101F6000C0936B0101E612E0F12CB8E7EB2E8F2D48
:101F70008695FE01E80FF11DCF0181709927980128
:101F800040915C0260915B02FC01EE9EC001EF9EFD
:101F9000900D11240E94610AF3940D5F1F4FF0E130
:101FA000FF12E5CFDF91CF911F910F91FF90EF903E
:101FB0000C94050BDF91CF911F910F91FF90EF9043
:101FC000089580918001882391F120915902822FF8
:101FD00086958F739EE3980F9F73943018F4825008
:101FE0000C94970D9AE3980F9F73933018F48650D2
:101FF0000C94ED0D97E3980F9F73963018F4895069
:102000000C941D0E91E3980F9F73963018F48F5027
:102010000C947B0E9BE2980F9F73933018F48551BC
:102020000C940E0F2E77203311F40C94920F089518
:102030003EB1242F209523233EB1342B4FB7F89483
:10204000FC01680F791FE617F70789F0819198E086
:102050003EB9000000C087FF2EB9880F000000C005
:1020600000C000C02EB900C09A9591F7ECCF4FBFC9
:1020700008952DB1242B2DB99B01220F331F260F5C
:10208000371FB9010E94181087EC90E00197F1F713
:1020900000C00000089544E00C943910909387012B
:1020A000809386010895E0918601F0918701309731
:1020B00021F00190F081E02D099480E00895E091F5
:1020C0008601F0918701309721F00280F381E02DA5
:1020D00009940895E0918601F0918701309721F0ED
:1020E0000480F581E02D09940895209184013091B8
:1020F00085018217930771F0909385018093840185
:10210000E0918601F0918701309721F00680F781F8
:10211000E02D099408952091820130918301821766
:10212000930771F09093830180938201E09186017F
:10213000F0918701309721F00084F185E02D09941A
:10214000089508950C94A11081E008950E949D1DAA
:102150000E945D090E94711E0E94A6210C94150D1B
:102160005F926F927F928F929F92AF92BF92CF9227
:10217000DF92EF92FF920F931F93CF93DF93CDB730
:10218000DEB72A970FB6F894DEBF0FBECDBF0E9410
:10219000AB090E94A410811111C08FEF89838A833B
:1021A0001B820E94A61D8160782F9D838C834981AC
:1021B0005A816B818D810E946E1157C099E8C92E9A
:1021C00091E0D92E00E010E0AA24A394B12C502E67
:1021D000802F0E94570A3C01F601E190F1906F01B7
:1021E000E826F926E114F10431F40F5F1F4F0530A2
:1021F000110569F7D2CF80912B0281FD0E94600A00
:1022000020E030E04501022E02C0880C991C0A949F
:10221000E2F7C4018E219F21892B09F12E835F8271
:102220006820792081E0672809F480E088870E948F
:10223000A61D8160782F9A8789874E815F81688586
:102240008A850E946E11F801EE0FFF1FE757FE4FBF
:1022500080819181882599259183808306C02F5F95
:102260003F4F2F30310571F6C0CF0E9411211091E0
:1022700088010E9453101817D9F00E9453108093C0
:1022800088012A960FB6F894DEBF0FBECDBFDF914E
:10229000CF911F910F91FF90EF90DF90CF90BF9063
:1022A000AF909F908F907F906F905F900C9480067E
:1022B0002A960FB6F894DEBF0FBECDBFDF91CF9147
:1022C0001F910F91FF90EF90DF90CF90BF90AF9054
:1022D0009F908F907F906F905F900895CF93DF9342
:1022E000CDB7DEB72B970FB6F894DEBF0FBECDBFCC
:1022F0004F83588769877A878B87DE01119686E03E
:10230000FD0111928A95E9F785E0FE01379601906B
:102310000D928A95E1F749815A816B817C818D818B
:102320009E810E94C2182B960FB6F894DEBF0FBE96
:10233000CDBFDF91CF910895882309F4F4C082388E
:10234000C1F40E94531081FDEEC069E38091020147
:10235000909103010E94071D0E94DF1B2FEF81EE69
:1023600094E0215080409040E1F700C0000069E314
:1023700019C08338F9F40E94531080FDD4C063E57E
:1023800080910201909103010E94071D0E94DF1BB2
:102390002FEF81EE94E0215080409040E1F700C0A3
:1023A000000063E580910201909103010E94121DDB
:1023B0000C94DF1B8438C1F40E94531082FDB3C01B
:1023C00067E480910201909103010E94071D0E9421
:1023D000DF1B2FEF81EE94E0215080409040E1F729
:1023E00000C0000067E4DECF9CEF980F913A40F404
:1023F000682F80910201909103010E94071DD8CFA0
:1024000090E2980F983050F4877091E001C0990FD6
:102410008A95EAF7892F0E94151CCACF9BE5980F71
:10242000933070F4853A29F0863A31F482E890E0EE
:1024300005C081E890E002C083E890E00C9475103C
:1024400098E5980F953108F06EC0883A61F1893AA5
:1024500069F18A3A71F18B3A79F18C3A81F18B3BCF
:1024600089F18C3B91F18D3A99F1803BA1F18E3A43
:10247000A9F18F3AB1F1813BB9F1823BC1F1833BC4
:10248000C9F1843BD1F1853BD9F1863BE1F1873B32
:10249000E9F1883BF1F1893BF9F18A3B09F03FC052
:1024A0008AE292E03EC082EE90E03BC089EE90E08E
:1024B00038C08AEE90E035C085EB90E032C086EB04
:1024C00090E02FC083EB90E02CC084EB90E029C01B
:1024D00087EB90E026C08CEC90E023C08DEC90E080
:1024E00020C083E891E01DC08AE891E01AC082E92B
:1024F00091E017C084E991E014C081E292E011C03C
:1025000083E292E00EC084E292E00BC085E292E0AA
:1025100008C086E292E005C087E292E002C080E057
:1025200090E00C948B100895882309F45DC08238E4
:1025300079F40E94531081FF57C069E38091020132
:10254000909103010E94071D0E94DF1B69E310C0E8
:102550008338B1F40E94531080FF46C063E5809138
:102560000201909103010E94071D0E94DF1B63E599
:1025700080910201909103010E94121D0C94DF1BB7
:10258000843879F40E94531082FF2EC067E4809152
:102590000201909103010E94071D0E94DF1B67E466
:1025A000E7CF9CEF980F913A10F4682FE1CF90E2BB
:1025B000980F983050F4877091E001C0990F8A9578
:1025C000EAF7892F0E941B1CD9CF9BE5980F933007
:1025D00020F480E090E00C947510885A853120F446
:1025E00080E090E00C948B100895882321F00E94E5
:1025F000151C0C94DF1B0895882321F00E941B1CDE
:102600000C94DF1B08958F929F92BF92CF92DF921E
:10261000EF92FF920F931F93CF93DF9300D0CDB72C
:10262000DEB74C01472FFC01C580C2949FE0C92250
:10263000D280DD2031F079836A830E94321C6A8166
:10264000498149836A830E94D81B49816A81882312
:1026500089F0DD2079F080E2860F883058F082E042
:102660000E94C11B0E94D81BBB24B394B826498189
:102670006A8101C0B12CE42EE2948FE0E822F12CB3
:10268000F701E859FF4F0C94EF2C842F807F142F13
:102690001F70882311F01295107FDD20C1F01123E7
:1026A00009F4DDC180E2860F883010F0611105C0A9
:1026B000812F6A830E94151C04C0812F6A830E94A7
:1026C000251C6A816A830E94DF1B6A81C8C1862F2C
:1026D0006A830E9494126A81112309F407C280E27E
:1026E000860F883010F0611104C0812F0E941B1CDE
:1026F00003C0812F0E942B1C0E94DF1BF7C1242FD7
:10270000207F842F8F70203211F08295807F662386
:1027100019F06130B9F022C0DD2049F0CC2009F475
:1027200052C1F1E0CF124FC10E94451CDFC1CC2045
:1027300021F021E0C21609F4D9C189830E94481C06
:10274000898147C1DD2029F095E09C1508F4CEC1B0
:102750003AC1E4E0EC1508F4C9C13BC1DD2051F0F9
:10276000CC2009F430C1F401958190FF78C19F70AD
:10277000958329C1CC2009F42CC182C1242F269530
:102780002695237030E02115310521F021303105E7
:1027900061F0ACC1DD2021F0862F942F937002C030
:1027A00080E090E00E947510B1C1DD2021F0862FFD
:1027B000942F937002C080E090E00E948B10A6C11D
:1027C000DD20F9F0653F51F0663F71F0643FA9F4F8
:1027D000809191029091920281600BC08091910250
:1027E00090919202826005C0809191029091920234
:1027F00084609093920280939102862F0E94192008
:1028000022C0653F51F0663F91F0643FC9F480916A
:102810009102909192028E7F05C0809191029091D9
:1028200092028D7F909392028093910209C0209131
:102830009102309192022B7F309392022093910269
:10284000862F0E9481200E94062160C1842F837000
:1028500009F04EC0D11056C1262F2295269527701B
:10286000220F220F862F8F70C82ED12CE12CF12C35
:10287000022E04C0CC0CDD1CEE1CFF1C0A94D2F707
:1028800064FF10C06FE070E080E090E004C0660F6D
:10289000771F881F991F2A95D2F7609570958095AC
:1028A000909503C060E070E0CB01242F269526951B
:1028B000237030E02230310569F02330310589F092
:1028C0006C297D298E299F292130310571F00E94C4
:1028D000131A18C16C297D298E299F290E94251A57
:1028E00011C10E94131AC701B6010E94011A0AC140
:1028F000DD2019F0842F817001C08695882309F4AA
:1029000001C1262F229526952770220F220F862F90
:102910008F70C82ED12CE12CF12C022E04C0CC0CCF
:10292000DD1CEE1CFF1C0A94D2F764FF10C06FE0A0
:1029300070E080E090E004C0660F771F881F991F49
:102940002A95D2F7609570958095909503C060E0C8
:1029500070E0CB01242F26952695237030E022309D
:10296000310569F02330310589F06C297D298E29E4
:102970009F292130310571F00E94C11AC3C06C2912
:102980007D298E299F290E94D31ABCC00E94C11A9A
:10299000C701B6010E94AF1AB5C0062F10E0F801BA
:1029A000E05EF109E531F10508F055C0E858FF4F48
:1029B0000C94EF2C162F1F70842F8F71DD2031F0B7
:1029C0000E945A1A812F0E94F51290C00E94751A17
:1029D000812F0E94FC128AC0DD2049F0F4E0FC1532
:1029E00008F484C0842F8F710E94941A7FC025E060
:1029F0002C1508F47BC0F6CFDD2039F0842F8F71C1
:102A00000E945A1A73C0DD20C9F3842F8F710E946F
:102A1000751A6CC0DD2029F0842F8F710E944B1A2B
:102A200065C00E94461A62C0DD2051F0142F1F714C
:102A3000812F0E945A1A63E0812F0E94B81B56C052
:102A400081E00E94C11B81E08C1508F04FC082E03C
:102A50000E94C11B4BC0DD2031F0CC2079F2862FC3
:102A60000E949C1143C0CC2081F2693349F49FEF4E
:102A7000E7EEF3E09150E040F040E1F700C00000E5
:102A8000862F0E94941232C04F70C4010E948206A9
:102A90000E946F193BC0D11039C0942F9F70892FAD
:102AA00090E08230910599F03CF4009769F001972D
:102AB000E9F40E94DF212AC08430910571F054F0BE
:102AC0000597A1F480E00AC00E94C3211FC00E94A4
:102AD000FB211CC00E94152219C085E00E943A22E9
:102AE00015C04F70C4010E940F0310C028E0E21609
:102AF000F10441F05CF09AE0E91AF108E2E0EE1628
:102B0000F10420F40E9453100E948006BB20F1F0D3
:102B10000E94B41B80FD1AC0F40112820E94AE1BF9
:102B20000E945A1AC4010E94B4150E94AE1B0F9055
:102B30000F90DF91CF911F910F91FF90EF90DF9059
:102B4000CF90BF909F908F900C94751A0F900F901C
:102B5000DF91CF911F910F91FF90EF90DF90CF9079
:102B6000BF909F908F9008950F931F93CF93DF9303
:102B7000EC01288139818B819C81892B31F03F3F89
:102B800011F080E003C02F3FE1F781E0811113C015
:102B9000CE010E944A03882371F0688179818A817D
:102BA0000E948B1B8C010E94E51A0E94FE19B8013D
:102BB000CE010E940313DF91CF911F910F910895D1
:102BC0000E94321C0E94421C8091020190910301DC
:102BD0000E941D1D0E94DF1B0E949A210E94062157
:102BE00080E090E00E94751080E090E00C948B10E3
:102BF0000E94221C0C94E0150E94801BE92FE29594
:102C0000EF70F0E03297EE30F105B8F4E357FF4F84
:102C10000C94EF2C803F59F018F4803E70F407C0FC
:102C2000843F59F404C0803E10F0813F31F481E0CC
:102C3000089593FB882780F9089580E00895CF9345
:102C4000DF9300D000D01F92CDB7DEB70F900F906A
:102C50000F900F900F90DF91CF910895CF93DF9356
:102C600000D000D000D0CDB7DEB726960FB6F894CE
:102C7000DEBF0FBECDBFDF91CF9108951F93CF93DD
:102C8000DF93C091940116E080919501C81799F0E7
:102C9000D0E01C9FF0011D9FF00D1124EA56FE4F5D
:102CA0004081518162817381848195810E942E16B9
:102CB0002196C770E9CFDF91CF911F910895409180
:102CC000C6015091C7016091C8017091C9018091FE
:102CD000CA019091CB010C942E16CF938091CB0119
:102CE00082958F7009F05FC08091C801882309F434
:102CF0005AC020919401A09195016091C6017091F4
:102D0000C7018091C9019091CA0131E06F3F09F07C
:102D100030E0B32FC6E02A1709F445C0009721F030
:102D20007F3F21F44B2F03C041E001C040E030E081
:102D300040FD35C0C29FF001C39FF00D1124EA563B
:102D4000FE4F418174132BC04081641328C042811F
:102D5000411125C0438154814817590710F441504F
:102D60005109481B590B483C5105C8F48091CB01CF
:102D70008F7080618093CB0186E0829FF001839FFA
:102D8000F00D1124E556FE4F80818F7080618083A5
:102D900086EC91E00E94B415CF910C943E162F5F03
:102DA0003F4F2770B8CFCF910895CF92DF92EF9227
:102DB000FF920F931F93CF93DF93CDB7DEB7629748
:102DC0000FB6F894DEBF0FBECDBF8C0185E0F801D1
:102DD000DE011D9601900D928A95E1F7D8014C9184
:102DE00011965C91119712966C9112971396ED9033
:102DF000FC9014977091C601E091C7012091C90120
:102E00003091CA012115310531F0EF3F31F481E0F5
:102E10007F3F19F403C081E001C080E0B82FB1709A
:102E2000CB2E80FD6CC1D090C801DD2009F4F5C027
:102E3000F091CB01E216F30638F0C701821B930B29
:102E4000883C910548F09BC0209530952E0D3F1D84
:102E5000283C310508F093C08F2F807F09F052C0C5
:102E6000E51314C0741312C0D62E61110FC0FF7089
:102E7000F061F093CB010E945F1686EC91E00E9416
:102E8000B4158091CB01F80185836CC1EF2831F036
:102E90005F3F31F481E04F3F19F403C081E001C08E
:102EA00080E080FD03C081E0862701C080E0F82F2C
:102EB000F170FF2E80FF1CC080919401209195013C
:102EC00036E0821709F428C190E0389FF001399F5D
:102ED000F00D1124EA56FE4F7181571306C0708120
:102EE000471303C07281671303C001968770E9CF4F
:102EF000D62E662309F436C18091CB018160809380
:102F0000CB0153C0E51308C0741306C0611104C09F
:102F1000D8011596FC93AEC04D875E878D859E8542
:102F20006A8B0E94FC156A89882329F1D62E6623B4
:102F300011F12091CB01822F82958F7090E0029742
:102F40000CF460C08091C6019091C70198878F836F
:102F50001986FB86EA862C87CE01079651C0E517B5
:102F600031F14D875E878D859E856A8B0E94FC15A9
:102F70006A8981112EC0C8010E94B415A4C08F2F88
:102F8000807F69F77E2DF98AE88A89890E941F1659
:102F900086EC91E00E94B415E6ECF1E086E0DF01FA
:102FA0001D928A95E9F70E945F16D12CDBC074133D
:102FB000D8CF6111D6CFD8011596FC93C8010E94D5
:102FC000B415E6ECF1E086E0DF011D928A95E9F7A1
:102FD000C9C0D62E662379F22091CB01822F82952B
:102FE0008F7090E0029774F08091C6019091C701B4
:102FF0009A8389831B82FD82EC822E83CE01019607
:103000000E94B41586E0F801A6ECB1E001900D92A3
:103010008A95E1F70E946D166FC0E216F30628F05C
:10302000C701821B930B9C0104C0209530952E0D87
:103030003F1D283C310508F052C0D62E662309F406
:103040009ACFE5132CC074132AC08091CB0180FD68
:103050001DC0982F92959F70C9F0D80115968C933A
:1030600015979F3039F09F5F9295907F8F70892BD5
:1030700015968C93C8010E94B41586E0F801A6EC61
:10308000B1E001900D928A95E1F736C086E0F80133
:10309000A6ECB1E001900D928A95E1F763C04D87EF
:1030A0005E878D859E850E94FC15882379F086E0D9
:1030B000F801A6ECB1E001900D928A95E1F70E942B
:1030C0006D160E945F16DD24D3944CC08091CB0115
:1030D00081608093CB01C8010E94B41543C07E2D4E
:1030E000F98AE88A89890E941F16E6ECF1E086E0F9
:1030F000DF011D928A95E9F70E945F1633C06623AF
:1031000009F439CF4D875E878D859E850E94FC1519
:10311000882309F430CFCBCF4D875E878D859E8580
:103120000E94801B292F22952F7030E0223031051C
:103130002CF49F7041F0811106C00CC02430310581
:103140002CF49F7049F4805E883020F0C8010E9402
:10315000B415CF2CDC2C06C0D80115969C91907F1D
:1031600091F7F8CF8D2D62960FB6F894DEBF0FBEA3
:10317000CDBFDF91CF911F910F91FF90EF90DF9026
:10318000CF9008951F93CF93DF93CDB7DEB72C97E1
:103190000FB6F894DEBF0FBECDBF4F835887698747
:1031A0007A878B879C87CE0107960E94D516882345
:1031B000C1F02F8138858A859B85892B31F03F3F6F
:1031C00011F080E003C02F3FE1F781E0811147C09B
:1031D0004F81588569857A858B859C850E942E163E
:1031E0003EC086E0FE013796DE01119601900D92F9
:1031F0008A95E1F7FF81E8854A855B854115510590
:1032000031F0EF3F31F481E0FF3F19F403C081E07A
:1032100001C080E080FD23C02091950130E0C9010C
:103220000196877099276091940170E0861797073F
:10323000F1F1F983EA835D834C8396E0929FD0019C
:10324000939FB00D1124AA56BE4FFE0131960190F6
:103250000D929A95E1F7809395010E943E1616E033
:103260008091940190919501891779F1189FC0017F
:1032700011248A569E4F0E94D516882331F1E09181
:1032800094011E9FF0011124EA56FE4F40815181A6
:1032900062817381848195810E942E1680919401B0
:1032A00090E001968770992780939401D9CF0E946E
:1032B000F8151092950110929401E6ECF1E086E089
:1032C000DF011D928A95E9F7CACF2C960FB6F894C4
:1032D000DEBF0FBECDBFDF91CF911F910895EF925A
:1032E000FF920F931F93CF93DF939C01009709F4F4
:1032F00071C0F12CEE24E394E9012196F901849147
:10330000843740F4843008F056C0813081F0823038
:1033100021F160C0853709F449C0C0F19CE7980FDE
:10332000903708F057C08F770E94941246C08901E9
:103330000E5F1F4FFE01849190E2980F983050F479
:103340008770FE2D01C0FF0F8A95EAF78F2F0E942C
:10335000351C15C00E949C1114C089010E5F1F4FBF
:10336000FE01849190E2980F983068F48770FE2DEA
:1033700001C0FF0F8A95EAF78F2F0E943B1C0E9425
:10338000DF1BE8011AC00E949412FBCF2E5F3F4F53
:10339000FE01C491CC2341F08FE99FE00197F1F742
:1033A00000C00000C150F6CFE90107C0FE01F49053
:1033B000E901229602C00E949C118F2D882341F0C2
:1033C000EFE9FFE03197F1F700C000008150F6CF40
:1033D0009E0192CFDF91CF911F910F91FF90EF90BF
:1033E000089508950E94F1196093020270930302F8
:1033F00080930402909305020C94E01508950C94B8
:10340000F2190F931F930091020210910302209171
:10341000040230910502602B712B822B932B1F919C
:103420000F910C94F2190F931F93009102021091C7
:10343000030220910402309105026023712382234C
:1034400093231F910F910C94F2190F931F930091E6
:1034500002021091030220910402309105026027BC
:103460007127822793271F910F910C94F2190895C9
:103470000C94371A0E94381A6093FE017093FF0172
:1034800080930002909301020C94E01560E070E0DC
:10349000CB010C943A1A41E050E060E070E004C0C7
:1034A000440F551F661F771F8A95D2F7CB01BA01CB
:1034B0000C943A1A41E050E060E070E004C0440F20
:1034C000551F661F771F8A95D2F78091FE01909154
:1034D000FF01A0910002B0910102482B592B6A2BE9
:1034E0007B2BCB01BA010C943A1A41E050E060E02A
:1034F00070E004C0440F551F661F771F8A95D2F7EE
:1035000040955095609570958091FE019091FF01D6
:10351000A0910002B0910102482359236A237B2322
:10352000CB01BA010C943A1A41E050E060E070E03F
:1035300004C0440F551F661F771F8A95D2F78091EC
:10354000FE019091FF01A0910002B0910102482775
:1035500059276A277B27CB01BA010C943A1A0F939B
:103560001F930091FE011091FF0120910002309104
:103570000102602B712B822B932B1F910F910C94C6
:103580003A1A0F931F930091FE011091FF012091B1
:1035900000023091010260237123822393231F9143
:1035A0000F910C943A1A0F931F930091FE01109102
:1035B000FF012091000230910102602771278227CC
:1035C00093271F910F910C943A1A08952FE0929F20
:1035D000800D1124482F4695469546958770B1E099
:1035E00001C0BB0F8A95EAF785E0489FA00111242E
:1035F00044535E4F80E090E070E0FA01E80FF91F5D
:10360000A0819B01082E02C0369527950A94E2F707
:103610002170332721952A272B232A2720830196DF
:103620008530910551F708952FE0929F800D112468
:10363000682F669566956695982F977085E0689FC8
:10364000B001112464537E4F40E050E080E0FB0164
:10365000E40FF51F208130E0092E02C03695279532
:103660000A94E2F721703327042E01C0220F0A9436
:10367000EAF7822B4F5F5F4F4530510541F70895C0
:10368000CF92DF92EF92FF920F931F93CF93DF932E
:10369000EC01C0900202D0900302E0900402F0908E
:1036A00005028091FE019091FF01A0910002B0916E
:1036B0000102C82AD92AEA2AFB2A0FE110E0B70141
:1036C000A601002E04C076956795579547950A94F4
:1036D000D2F740FD05C00150110988F780E007C00E
:1036E000BE01802F0E949F060197A9F3802FDF91D2
:1036F000CF911F910F91FF90EF90DF90CF900895A1
:10370000CF93DF93EC010E94401BBE010E949F06F5
:10371000DF91CF9108951F93CF93DF93EB019091A9
:103720009301992321F0CB010E94801B13C08823B1
:1037300049F0CB010E94401B182F682FCE010E9438
:10374000E61A04C0CB010E94141B182FBE01812F62
:103750000E949F06DF91CF911F91089580910602EC
:1037600085958595859508958091060287700895C1
:1037700098E0899F90011124622B609306020C94BB
:103780005A1A409106028095842380930602982F4E
:10379000977069F450E0282F332727FD30954217A2
:1037A000530729F08595859585950C94751A08958C
:1037B00090910602977081E009F480E00895E0910D
:1037C0000201F091030180912A028083E0910201BD
:1037D000F0910301808190912902892B8083E091EF
:1037E0000201F0910301808190912802892B80834E
:1037F00090910702992381F0E0910201F091030179
:103800008081892B808380910201909103010E9425
:10381000A01C811110920702809102019091030176
:103820000C945F1080912A02089590912A02982B9F
:1038300090932A020895809590912A02982390935C
:103840002A02089510922A02089590912902982B35
:10385000909329020895809590912902982390933E
:103860002902089510922902089590912802982B18
:103870009093280208958095909128029823909320
:10388000280208951092280208958093070208954F
:103890001092070208956DEE7EEF80E090E00E94A6
:1038A000322D60E082E090E00E94142D60E083E021
:1038B00090E00E94142D60E084E090E00E94142DBE
:1038C00060E085E090E00E94142D60E086E090E0EA
:1038D0000E94142D40E050E0BA0188E090E00C9482
:1038E000262D80E090E00E940E2D21E08D3E9E4F1F
:1038F00009F020E0822F089582E090E00C94002DE2
:10390000682F82E090E00C94142D83E090E00C94FA
:10391000002D682F83E090E00C94142D84E090E05B
:103920000C94002D682F84E090E00C94142D86E018
:1039300090E00C94002D682F86E090E00C94142DFC
:1039400020E030E040E0FC01E20FF31F5181511113
:103950004F5F2F5F3F4F2F313105A9F7842F089517
:1039600020E030E04FEFFC01E20FF31F52815617C9
:1039700099F04F3F19F4511101C0422F2F5F3F4F73
:103980002E31310581F74F3F39F0FC01E40FF11D75
:1039900047FDFA9562830895089520E030E0FC0128
:1039A000E20FF31F4281461301C012822F5F3F4F87
:1039B0002E313105A1F70895262F269526952695B7
:1039C0002F3170F4FC01E20FF11D677021E030E04F
:1039D000062E01C0220F0A94EAF78181822B81838F
:1039E0000895262F2695269526952F3178F4FC01EB
:1039F000E20FF11D677021E030E0062E01C0220FBA
:103A00000A94EAF720958181282321830895209143
:103A10001401222329F02091970227FD0C94DC1C2D
:103A20000C94B01C20911401222329F020919702BC
:103A300027FD0C94F11C0C94CD1C20E030E0FC011F
:103A4000E20FF31F11822F5F3F4F2F313105B9F77E
:103A5000089580919E02843039F110922C0220E466
:103A600088E190E00FB6F894A895809360000FBEAF
:103A70002093600080E00E94110680E00E94800692
:103A800083B7817F846083BF83B7816083BF78946D
:103A9000889583B78E7F83BF88E10FB6F8948093B3
:103AA0006000109260000FBE089508950895CF93AE
:103AB0000E94551D0E94AB090E94561DC0E08C2F2C
:103AC0000E94570A892B29F4CF5FC530C1F780E0E7
:103AD00001C081E0CF9108950E94F8150E94A621AF
:103AE0000E9453100C9480061F920F920FB60F92F3
:103AF00011248F939F93AF93BF9380912C028111D8
:103B000013C08091930290919402A0919502B0917C
:103B100096024196A11DB11D809393029093940249
:103B2000A0939502B0939602BF91AF919F918F9110
:103B30000F900FBE0F901F90189582E084BD93E008
:103B400095BD9AEF97BD80936E0008952FB7F894B6
:103B50008091930290919402A0919502B091960267
:103B60002FBF0895CF92DF92EF92FF920F931F9392
:103B70002FB7F8944091930250919402609195026E
:103B8000709196022FBF6A017B01EE24FF248C0105
:103B900020E030E0C016D106E206F30610F44150F2
:103BA0005109481B590BCA011F910F91FF90EF90CB
:103BB000DF90CF90089578941F920F920FB60F92D6
:103BC00011248F939F93AF93BF9380919302909111
:103BD0009402A0919502B09196020196A11DB11D8B
:103BE0008093930290939402A0939502B0939602CF
:103BF000BF91AF919F918F910F900FBE0F901F902B
:103C0000189581E08093E00080E28093D8001092C4
:103C1000C9008FE19EE40197F1F700C0000087E042
:103C200090EBDC018093A7029093A802A093A902D5
:103C3000B093AA022CE088E190E00FB6F894A89522
:103C4000809360000FBE20936000FFCFBF92CF92A1
:103C5000DF92EF92FF920F931F93CF93DF93B12CDC
:103C600001E010E0E82EF12C8B2D0E94570A6C0128
:103C7000C0E0D0E098010C2E02C0220F331F0A943E
:103C8000E2F72C213D21232B29F42196CF30D105B9
:103C900089F70AC06C2F7B2D80E00E948506E8160C
:103CA000F90699F781E005C0B39485E0B812DCCF3E
:103CB00080E0DF91CF911F910F91FF90EF90DF9007
:103CC000CF90BF900895CF93C82F8CE20E94261EFC
:103CD000882321F08C2FCF910C94261E80E0CF9169
:103CE0000895CF930E94711C811102C00E944B1C49
:103CF000C5E6C15049F00E94AB098FE39CE90197EA
:103D0000F1F700C00000F5CF89E20E94631E811127
:103D10000DC18AE20E94631E81110E944B1C85E046
:103D20000E94631E81110E94011E0E947C1C8093D0
:103D30002B0287E00E94631E882399F18BE10E9489
:103D4000631E882351F090912B0291FB882780F904
:103D500021E0822780FB91F922C08EE00E94631E41
:103D6000882351F090912B0292FB882780F921E063
:103D7000822780FB92F913C080E10E94631E90911C
:103D80002B02882341F093FB882780F921E08227CA
:103D900080FB93F904C0892F809580FB90F9909364
:103DA0002B0280912B020E94801C0E948E1C90E0AE
:103DB000909398028093970280EE0E94631E88235E
:103DC00041F080919702982F909590FB80F9809315
:103DD000970289E30E94631E882359F0909197020D
:103DE00091FB882780F921E0822780FB91F990934D
:103DF000970282EE0E94631E882359F090919702E9
:103E000092FB882780F921E0822780FB92F990932A
:103E1000970286EE0E94631E882359F090919702C4
:103E200093FB882780F921E0822780FB93F9909308
:103E3000970283EE0E94631E882359F090919702A7
:103E400094FB882780F921E0822780FB94F99093E6
:103E5000970285E30E94631E882359F09091970290
:103E600095FB882780F921E0822780FB95F99093C4
:103E7000970281E30E94631E882359F09091970274
:103E800096FB882780F921E0822780FB96F99093A2
:103E9000970281E10E94631E882359F09091970256
:103EA00097FB882780F921E0822780FB97F9909380
:103EB0009702809197020E94921C87E20E94631EE3
:103EC000C82F8EE10E94631E8111C2608FE10E94A3
:103ED000631E8111C46080E20E94631E8111C8606C
:103EE00081E20E94631E8111C06182E20E94631E12
:103EF0008111C06283E20E94631E8111C06484E26A
:103F00000E94631E882311F0C06802C0CC2329F0F0
:103F10008C2F0E94891C6C2F03C00E94851C682F67
:103F200070E080E090E0CF910C94FF19CF9108955C
:103F300080912F0280FF0BC06091070185E0689F90
:103F4000B001112475956795759567952AC081FF15
:103F500009C06091070185E0689FB0011124759543
:103F600067951FC082FF07C06091070185E0689FC9
:103F7000B001112416C0409130024423C9F0609171
:103F80000601461788F72091070185E0289F9001D8
:103F90001124429FC001439F900D112470E00E94A4
:103FA000B92C6038710540F46115710539F002C013
:103FB00065E070E0862F08958FE7089581E0089509
:103FC00080912F0280FF08C06091050170E0759517
:103FD00067957595679521C081FF06C060910501C1
:103FE00070E07595679519C082FF04C06091050166
:103FF00070E010C0809130028823C1F0609104010C
:104000008617A0F790910501989FC001112470E0D8
:104010000E94B92C6038710528F46115710521F0F2
:10402000862F08958FE7089581E0089561E070E09C
:10403000F4CF803F21F40E94981F819504C0813FF6
:1040400029F40E94981F809333020895823F21F43F
:104050000E94981F819504C0833F29F40E94981FF5
:10406000809332020895893F19F40E94E01F05C031
:104070008A3F31F40E94E01F8195809334020895B5
:104080008B3F21F40E94E01F819504C08C3F29F4EE
:104090000E94E01F809335020895843F21F48091AF
:1040A0003102816017C0853F21F480913102826026
:1040B00011C0863F21F48091310284600BC0873F9C
:1040C00021F480913102886005C0883F31F48091ED
:1040D000310280618093310208958D3F21F48091F7
:1040E0002F0281600BC08E3F21F480912F028260ED
:1040F00005C08F3F29F480912F02846080932F02A6
:104100000895803F39F48091330287FF6CC010928C
:10411000330269C0813F29F4809133021816BCF341
:1041200062C090913202823F29F497FF5CC01092E6
:10413000320259C0833F19F41916CCF354C0893F99
:1041400041F48091340218160CF04DC010923402E4
:104150004AC08A3F29F48091340287FF44C0F6CFD9
:104160008B3F39F48091350287FF3DC010923502B4
:104170003AC08C3F29F4809135021816BCF333C045
:10418000843F21F4809131028E7F17C0853F21F456
:10419000809131028D7F11C0863F21F480913102E0
:1041A0008B7F0BC0873F21F480913102877F05C050
:1041B000883F31F4809131028F7E8093310213C0A9
:1041C0008D3F21F480912F028E7F0BC08E3F21F412
:1041D00080912F028D7F05C08F3F29F480912F029F
:1041E0008B7F80932F028091320281110EC08091CB
:1041F000330281110AC080913402811106C080917E
:104200003502811102C010923002089581E392E0DC
:104210000E946A100E94A61D90932E0280932D0288
:1042200008951F93CF93DF9380912D0290912E02DA
:104230000E94B21D40913002442321F020910801D8
:1042400030E006C0209109015AE0259F9001112419
:104250008217930708F46AC08091320210913302EA
:10426000D0913402C0913502811107C0111105C0EF
:10427000D11103C0CC2309F459C04F3F19F04F5F4F
:1042800040933002181624F40E94981F8093320243
:104290008091320287FF05C00E94981F819580930C
:1042A0003202111624F40E94981F809333028091E9
:1042B000330287FF05C00E94981F819580933302C7
:1042C00020913202222379F040913302442359F0A5
:1042D00055EB250390011124309332024503C001B0
:1042E0001124909333021D1624F40E94E01F809342
:1042F00034028091340287FF05C00E94E01F81953F
:10430000809334021C1624F40E94E01F809335022F
:104310008091350287FF05C00E94E01F8195809340
:104320003502DF91CF911F910C940621DF91CF913F
:104330001F910895E1E3F2E085E0DF011D928A9587
:10434000E9F71092300210922F0208950E94711C1A
:10435000811102C00E944B1C0E94971C80939902FD
:10436000282F269530E02630310524F081708A60B0
:10437000809399028091990280FF02C0869501C0C6
:1043800080E00C94110620919902322F3695832FEC
:1043900090E0059744F491E0930F990F822F81707C
:1043A000892B809399028091990281608093990270
:1043B0000E949B1C8091990286950C941106809115
:1043C0009902982F969591F09158990F8170892BA9
:1043D000809399028E7F91E009F490E08091990298
:1043E00090FB80F9809399020E949B1C8091990216
:1043F00086950C94110680919902982F909590FBC8
:1044000080F980939902813019F483E080939902B6
:10441000809199020E949B1C8091990280FF02C0AA
:10442000869501C080E00C94110630919902232FEB
:1044300026952F5F2F77822F90E0317006972CF40E
:10444000220F232B2093990202C03093990280916E
:1044500099028E7F91E009F490E08091990290FB9F
:1044600080F9809399020E949B1C80919902869505
:104470000C941106863008F085E0880F909199021F
:104480009170982B909399029E7F21E009F420E08F
:104490008091990220FB80F9809399020E949B1CD5
:1044A0008091990286950C94110680915602089588
:1044B0000F931F93CF93DF9300D01F92CDB7DEB73A
:1044C0008C010E94CC24823011F0843019F583E0F5
:1044D00089831B830A838093E9008FEF9091E80022
:1044E000815095FD06C095ED9A95F1F70000811178
:1044F000F5CF8091E80085FF0DC040E050E063E01B
:1045000070E0CE0101960E94E9248091E8008E7748
:104510008093E8000F900F900F90DF91CF911F9143
:104520000F910895CF93DF9300D01F92CDB7DEB7E0
:1045300020919E02243031F522E029838058910990
:104540009B838A8383E08093E9008FEF9091E8005A
:10455000815095FD06C095ED9A95F1F70000811107
:10456000F5CF8091E80085FF0DC040E050E063E0AA
:1045700070E0CE0101960E94E9248091E8008E77D8
:104580008093E8000F900F900F90DF91CF910895E6
:10459000CF93DF93EC010E94CC24823011F0843061
:1045A000F9F482E08093E9008FEF9091E800815068
:1045B00095FD06C095ED9A95F1F700008111F5CFB4
:1045C0008091E80085FF0CC040E050E065E070E0BD
:1045D000CE010E94E9248091E8008E778093E80064
:1045E000DF91CF910895CF93DF93EC010E94CC240B
:1045F000823019F0843009F047C08091140188237B
:10460000E1F08091970287FF18C084E08093E90071
:104610008FEF9091E800815095FD06C095E19A9545
:10462000F1F700008111F5CF8091E80085FF2CC0E3
:1046300040E050E060E270E017C081E08093E90064
:104640008FEF9091E800815095FD06C095ED9A9509
:10465000F1F700008111F5CF8091E80085FF14C0CB
:1046600040E050E068E070E0CE010E94E9248091D3
:10467000E8008E778093E80080E2FE01A6E3B2E0D6
:1046800001900D928A95E1F7DF91CF910895809185
:104690009D02811109C00E947B260E94D82680912C
:1046A000E20084608093E200089510929D020895D4
:1046B000089508950C946C1D42E061EC81E00E9425
:1046C000F52542E061EC82E00E94F52542E061ECD4
:1046D00083E00E94F52542E261EC84E00C94F5252C
:1046E0008091A002833009F455C030F4813071F01C
:1046F000823009F48EC008958A3009F47AC08B3074
:1047000009F460C0893009F09CC020C080919F02EC
:10471000813A09F096C08091E800877F8093E80095
:104720008091A3029091A402892B21F060E080E0A7
:1047300090E003C060E286E392E070E00E943225E0
:104740008091E8008B778093E800089580919F0224
:10475000813209F076C08091A3029091A402009763
:1047600019F0039709F06DC08091E800877F80936E
:10477000E8008091E80082FD05C080919E028111D1
:10478000F8CF5FC08091F100809356028091E800DD
:104790008B7753C080919F02813A09F052C080917B
:1047A000A3029091A402892B09F04BC08091E800EC
:1047B000877F8093E8008091E80080FFFCCF8091A4
:1047C000140136C080919F028132D9F58091A302F5
:1047D0009091A402892BA9F58091E800877F8093AE
:1047E000E8000E942A268091A102809314010C9473
:1047F000F81580919F02813221F58091E800877F32
:104800008093E8000E942A268091A202809357029A
:10481000089580919F02813AA1F48091E800877FFA
:104820008093E8008091E80080FFFCCF80915702E0
:104830008093F1008091E8008E778093E8000C94DB
:104840002A26089584B7877F84BF88E10FB6F8943D
:1048500080936000109260000FBE80E8809361003A
:10486000109261000E94A2100E947B260E94D8260E
:104870008091E20084608093E20078940E945B293A
:104880000E94A6108AE091E00E944E1080919E0244
:10489000853069F40E94291D80919C028823B1F320
:1048A0000E94571D882391F30E94D324EFCF0E94CA
:1048B000B0100E94E10FEACF292F332723303105B2
:1048C000A9F06CF42130310509F448C022303105DB
:1048D00009F049C08DE690E020E034E048C0213284
:1048E0003105F9F02232310549F13DC09927813077
:1048F000910571F02CF4892BB1F5ECEFF3E00DC0CC
:104900008230910541F0039771F5E8EDF3E005C0C1
:10491000EAEEF3E002C0EEEDF3E0849190E09F0157
:1049200026C064307105F8F4FB01EE0FFF1FEB5C4D
:10493000FE4F2081318189E090E019C0643071051B
:1049400090F4FB01EE0FFF1FE35DFE4F20813181EC
:10495000FB01E75DFE4F808190E009C082E190E0BD
:104960002DE634E004C080E090E020E030E0FA0181
:104970003183208308950895CF93C82F0E94BB24CC
:10498000C0935802CF91089580919E02843011F413
:1049900082E0089581E0089580915802811102C05B
:1049A0000C94C424089580E189BD82E189BD09B4D5
:1049B00000FEFDCF8091D8008F7D8093D80080913C
:1049C000E00082608093E0008091E00081FDFCCFF8
:1049D0000895CF92DF92EF92FF920F931F93CF93A0
:1049E000DF937C018B01EA010E944B26811131C0CB
:1049F000209731F088819981081B190BE80EF91E68
:104A0000C12CD12C0115110519F18091E80085FD0B
:104A100014C08091E8008E778093E800209741F0E1
:104A2000888199818C0D9D1D9983888385E011C0B3
:104A30000E944B26882331F30CC0F70181917F013E
:104A40008093F10001501109FFEFCF1ADF0ADACF8E
:104A500080E0DF91CF911F910F91FF90EF90DF9059
:104A6000CF9008952091A5023091A602261737070E
:104A700048F06115710539F42091E8002E772093F4
:104A8000E80001C0B901FC0120E061157105B9F130
:104A900080919E02882309F440C0853009F43FC00C
:104AA0008091E80083FD3DC08091E80082FF06C050
:104AB0008091E80082FF26C080E008958091E800A0
:104AC00080FFE3CF2091F3008091F20090E0922BE1
:104AD0006115710551F08830910538F421912093CA
:104AE000F100615071090196F3CF21E0089709F0B8
:104AF00020E08091E8008E778093E800C6CF2111F6
:104B0000C7CFD6CF80919E02882339F0853039F007
:104B10008091E80083FFCCCF04C082E0089583E059
:104B2000089581E008952091A5023091A6022617EC
:104B3000370748F06115710539F42091E8002E77A8
:104B40002093E80001C0B901FC0120E06115710566
:104B5000C1F180919E02882309F441C0853009F497
:104B600040C08091E80083FD3EC08091E80082FF54
:104B700006C08091E80082FF27C080E00895809100
:104B8000E80080FFE3CF2091F3008091F20090E0F5
:104B9000922B6115710559F08830910540F42491EC
:104BA0002093F1003196615071090196F2CF21E016
:104BB000089709F020E08091E8008E778093E80064
:104BC000C5CF2111C6CFD5CF80919E02882339F061
:104BD000853039F08091E80083FFCBCF04C082E0BC
:104BE000089583E0089581E00895982F973058F54F
:104BF0009093E900981739F07091EC002091ED0046
:104C00005091F00003C0242F762F50E021FF19C0EF
:104C10003091EB003E7F3093EB003091ED003D7F13
:104C20003093ED003091EB0031603093EB007093E6
:104C3000EC002093ED005093F0002091EE0027FF50
:104C400007C09F5FD3CF8F708093E90081E0089504
:104C500080E0089580919F0287FD05C08091E80063
:104C600080FF0EC012C08091E80082FD05C08091D7
:104C70009E028111F8CF08958091E8008B7708C0DB
:104C800080919E028111EACF08958091E8008E778D
:104C90008093E80008958091E4009091E50045E656
:104CA0002091EC0020FF21C02091E80020FD21C0D0
:104CB00020919E02222389F0253089F02091EB007B
:104CC00025FD0FC02091E4003091E5002817390739
:104CD00039F3415041F0C901E3CF82E0089583E008
:104CE000089581E0089584E008952091E80022FF6E
:104CF000DFCF80E008950E94E9260E94F126E0EED1
:104D0000F0E0808181608083E8EDF0E080818F7742
:104D1000808319BCA7EDB0E08C918E7F8C9380814D
:104D20008F7E808310929D0208950F931F93CF93DF
:104D3000DF930E94E9260E94F126C8EDD0E0888129
:104D40008F77888388818068888388818F7D888336
:104D500019BC10929E0210929A0210929C0210921C
:104D60009B0200EE10E0F80180818B7F80838881B8
:104D70008160888342E060E080E00E94F525E1EEFA
:104D8000F0E080818E7F8083E2EEF0E080818160C0
:104D90008083808188608083F80180818E7F80831A
:104DA000888180618883DF91CF911F910F91089551
:104DB000E8EDF0E080818F7E8083E7EDF0E0808198
:104DC0008160808384E082BF81E080939D020C94A7
:104DD0009526E8EDF0E080818E7F80831092E200DE
:104DE00008951092DA001092E10008951F920F9238
:104DF0000FB60F9211242F933F934F935F936F93AE
:104E00007F938F939F93AF93BF93EF93FF93809183
:104E1000E10082FF0BC08091E20082FF07C0809119
:104E2000E1008B7F8093E1000E945A298091DA0093
:104E300080FF1FC08091D80080FF1BC08091DA00E6
:104E40008E7F8093DA008091D90080FF0DC080E1D1
:104E500089BD82E189BD09B400FEFDCF81E0809368
:104E60009E020E94472305C019BC10929E020E9418
:104E700055238091E10080FF19C08091E20080FFFE
:104E800015C08091E2008E7F8093E2008091E20065
:104E900080618093E2008091D80080628093D80086
:104EA00019BC85E080939E020E9459238091E10005
:104EB00084FF30C08091E20084FF2CC080E189BD76
:104EC00082E189BD09B400FEFDCF8091D8008F7DBD
:104ED0008093D8008091E1008F7E8093E1008091E3
:104EE000E2008F7E8093E2008091E20081608093F7
:104EF000E20080919A02882311F084E007C080913B
:104F0000E30087FF02C083E001C081E080939E023E
:104F10000E945A238091E10083FF29C08091E20022
:104F200083FF25C08091E100877F8093E10082E0CC
:104F300080939E0210929A028091E1008E7F80936E
:104F4000E1008091E2008E7F8093E2008091E20098
:104F500080618093E20042E060E080E00E94F525FD
:104F60008091F00088608093F0000E945823FF91A8
:104F7000EF91BF91AF919F918F917F916F915F91D1
:104F80004F913F912F910F900FBE0F901F9018954A
:104F90001F920F920FB60F9211242F933F934F93AE
:104FA0005F936F937F938F939F93AF93BF93CF93B1
:104FB000EF93FF93C091E900CF708091EC001092C5
:104FC000E9008091F000877F8093F00078940E9440
:104FD00004281092E9008091F00088608093F0002E
:104FE000C093E900FF91EF91CF91BF91AF919F9155
:104FF0008F917F916F915F914F913F912F910F9082
:105000000FBE0F901F9018951F93CF93DF93CDB7CE
:10501000DEB7AA970FB6F894DEBF0FBECDBFEFE99B
:10502000F2E08091F100819322E0E73AF207C9F7BC
:105030000E9470238091E80083FF24C120919F0289
:105040003091A002832F90E08A30910508F01AC1B8
:10505000FC01E556FF4F0C94EF2C203821F022384C
:1050600009F010C108C080919B0290919C02992385
:1050700089F082600FC08091A3028F70873008F0A2
:1050800001C18093E9008091EB0085FB882780F9BE
:105090001092E9009091E800977F9093E800809348
:1050A000F1001092F100CCC0822F8D7F09F0EAC090
:1050B000222319F0223061F0E5C08091A1028130F5
:1050C00009F0E0C0333009F080E080939C022AC0F0
:1050D0008091A102811126C02091A3022F708FEF31
:1050E000820F863008F0CEC02093E9008091EB005B
:1050F00080FF18C08091EB00333011F4806210C043
:1051000080618093EB0081E090E001C0880F2A95D8
:10511000EAF78093EA001092EA008091EB00886041
:105120008093EB001092E9008091E800877F8093E4
:10513000E8000E942A26A6C02111A4C01091A10255
:105140001F778091E3008078812B8093E30080912A
:10515000E800877F8093E8000E942A268091E8007B
:1051600080FFFCCF8091E30080688093E3001123EF
:1051700011F083E001C082E080939E0283C020583A
:10518000223008F07FC08091A1029091A2028C3D54
:1051900023E0920779F583E08A838AE289834FB717
:1051A000F894DE01139620E03EE051E2E32FF0E0B8
:1051B00050935700E49120FF03C0E295EF703F5FEA
:1051C000EF708E2F90E0EA3010F0C79601C0C096C5
:1051D0008D939D932F5F243149F74FBF8091E80055
:1051E000877F8093E8006AE270E0CE0101960E941A
:1051F000322515C06091A3027091A402AE014F5FE9
:105200005F4F0E945C240097E9F12091E800277F1E
:105210002093E800BC0189819A810E9493258091A6
:10522000E8008B778093E8002DC0203859F58091F5
:10523000E800877F8093E80080919A028093F100D4
:105240008091E8008E7773CF21111CC09091A1024C
:105250009230C0F48091E800877F8093E8009093BB
:105260009A020E942A2680919A02811104C080919C
:10527000E30087FF02C084E001C081E080939E02CA
:105280000E945C238091E80083FF0AC08091E800BF
:10529000877F8093E8008091EB0080628093EB0031
:1052A000AA960FB6F894DEBF0FBECDBFDF91CF91A7
:1052B0001F9108950895CF9380919E028823B1F0A5
:1052C0008091E9008F709091EC0090FF02C090E80F
:1052D00001C090E0C92FC82B1092E9008091E8002E
:1052E00083FD0E940428CF70C093E900CF910895F8
:1052F0005058BB27AA270ED09EC18FD130F094D131
:1053000020F031F49F3F11F41EF45FC10EF4E095DC
:10531000E7FB55C1E92FA0D180F3BA1762077307E5
:105320008407950718F071F49EF5B8C10EF4E09566
:105330000B2EBA2FA02D0B01B90190010C01CA014F
:10534000A0011124FF27591B99F0593F50F4503EFA
:1053500068F11A16F040A22F232F342F4427585FEC
:10536000F3CF469537952795A795F0405395C9F704
:105370007EF41F16BA0B620B730B840BBAF09150BC
:10538000A1F0FF0FBB1F661F771F881FC2F70EC05B
:10539000BA0F621F731F841F48F48795779567952E
:1053A000B795F7959E3F08F0B3CF9395880F08F017
:1053B0009927EE0F9795879508950CD03CC134D16D
:1053C00040F02BD130F021F45F3F19F0F8C05111BB
:1053D00066C1FBC041D198F39923C9F35523B1F3BA
:1053E000951B550BBB27AA2762177307840738F054
:1053F0009F5F5F4F220F331F441FAA1FA9F333D0B3
:105400000E2E3AF0E0E830D091505040E695001C66
:10541000CAF729D0FE2F27D0660F771F881FBB1F22
:10542000261737074807AB07B0E809F0BB0B802DFC
:10543000BF01FF2793585F4F2AF09E3F510568F048
:10544000BEC02DC15F3FECF3983EDCF386957795A7
:105450006795B795F7959F5FC9F7880F911D96954A
:10546000879597F90895E1E0660F771F881FBB1FA6
:10547000621773078407BA0720F0621B730B840B53
:10548000BA0BEE1F88F7E095089519F40EF097C057
:1054900005C19BC0E9D0C8F39638C0F707F80F9252
:1054A000E8942BE33AEA48EB5FE77DD10F920F9245
:1054B0000F924DB75EB70F9235D1EAE4F1E088D094
:1054C0004F915F91EF91FF91E595EE1FFF1F49F01E
:1054D000FE57E0684427EE0F441FFA95E1F7419527
:1054E000550BECD00F9007FEE0C00895BDD088F0BA
:1054F0009F5790F0B92F9927B751A0F0D1F0660FC0
:10550000771F881F991F1AF0BA95C9F712C0B130DA
:1055100081F0C4D0B1E00895C1C0672F782F8827EB
:10552000B85F39F0B93FCCF3869577956795B39519
:10553000D9F73EF490958095709561957F4F8F4F88
:105540009F4F0895E89409C097FB3EF4909580958D
:10555000709561957F4F8F4F9F4F9923A9F0F92F39
:1055600096E9BB279395F695879577956795B795B7
:10557000F111F8CFFAF4BB0F11F460FF1BC06F5F9D
:105580007F4F8F4F9F4F16C0882311F096E911C0AF
:10559000772321F09EE8872F762F05C0662371F0D0
:1055A00096E8862F70E060E02AF09A95660F771FE4
:1055B000881FDAF7880F9695879597F9089597F9D8
:1055C0009F6780E870E060E008959FEF80EC0895A9
:1055D000DF93CF931F930F93FF92EF92DF927B01A4
:1055E0008C01689405C0DA2EEF01DBD0FE01E8944F
:1055F000A5912591359145915591AEF3EF018ADE44
:10560000FE019701A801DA9479F7DF90EF90FF90FF
:105610000F911F91CF91DF91089500240A941616DF
:10562000170618060906089500240A941216130690
:10563000140605060895092E0394000C11F488231E
:1056400052F0BB0F40F4BF2B11F460FF04C06F5F3A
:105650007F4F8F4F9F4F089557FD9058440F551F10
:1056600059F05F3F71F04795880F97FB991F61F0E4
:105670009F3F79F087950895121613061406551F5B
:10568000F2CF4695F1DF08C0161617061806991FC7
:10569000F1CF86957105610508940895E894BB27BC
:1056A00066277727CB0197F908959B01AC0160E04D
:1056B00070E080E89FE381CE82CFD0C0D5DFE8F3F1
:1056C0009923D9F3940F511DBBF39150504094F09E
:1056D00059F0882332F0660F771F881F9150504091
:1056E000C1F79E3F510544F7880F911D9695879508
:1056F00097F908955F3FACF0983E9CF0BB278695E4
:1057000077956795B79508F4B1609395C1F7BB0F8E
:1057100058F711F460FFE8CF6F5F7F4F8F4F9F4FB7
:10572000E3CFBDCFFA01DC01AA0FBB1F9B01AC0187
:10573000BF5728F422273327442750781FC0B7517A
:1057400088F4AB2F0024469537952795011CA39527
:10575000D2F3002069F0220F331F441FB395DAF310
:105760000DD0C6CD61307105A0E88A07B94630F486
:105770009B01AC016627772788279078309621F027
:10578000208331834283538308950BD054CF45DF68
:1057900028F04ADF18F0952309F011CF16CF112415
:1057A0007ECF5ADFA0F3959FD1F3950F50E0551FA0
:1057B000629FF001729FBB27F00DB11D639FAA2766
:1057C000F00DB11DAA1F649F6627B00DA11D661FB5
:1057D000829F2227B00DA11D621F739FB00DA11DD6
:1057E000621F839FA00D611D221F749F3327A00D90
:1057F000611D231F849F600D211D822F762F6A2F2C
:1058000011249F5750408AF0E1F088234AF0EE0FB0
:10581000FF1FBB1F661F771F881F91505040A9F7BD
:105820009E3F510570F0CBCE3ACF5F3FECF3983EF0
:10583000DCF3869577956795B795F795E7959F5F24
:10584000C1F7FE2B880F911D9695879597F90895BE
:105850009F9313D00F9007FCEE5F36C09F3F31F04F
:10586000915020F4879577956795B795880F911D8E
:105870009695879597F90895A8CEF6DEE8F3E89413
:10588000E0E0BB279F57F0F02AED3FE049EC06C06F
:10589000EE0FBB0F661F771F881F28F0B23A620712
:1058A0007307840728F0B25A620B730B840BE395DD
:1058B0009A9572F7803830F49A95BB0F661F771F60
:1058C000881FD2F79048CCCFEF93E0FF06C0A2EA42
:1058D0002AED3FE049EC5FEB1DDDADDE0F90039458
:1058E00001FC9058E2E7F1E000C09F938F937F9313
:1058F0006F93FF93EF939B01AC0147DFEF91FF9113
:1059000067DE2F913F914F915F913FCFA29FB001F2
:10591000B39FC001A39F700D811D1124911DB29FE3
:10592000700D811D1124911D0895DB018F939F93AC
:105930000E94F52CBF91AF91A29F800D911DA39F56
:10594000900DB29F900D11240895AA1BBB1B51E12D
:1059500007C0AA1FBB1FA617B70710F0A61BB70BDF
:10596000881F991F5A95A9F780959095BC01CD0184
:10597000089597FB072E16F4009407D077FD09D001
:105980000E94A52C07FC05D03EF4909581959F4F71
:105990000895709561957F4F0895A1E21A2EAA1B74
:1059A000BB1BFD010DC0AA1FBB1FEE1FFF1FA217CF
:1059B000B307E407F50720F0A21BB30BE40BF50BCC
:1059C000661F771F881F991F1A9469F76095709555
:1059D000809590959B01AC01BD01CF010895EE0F1C
:1059E000FF1F0590F491E02D09940E94862CA59F3D
:1059F000900DB49F900DA49F800D911D11240895CA
:105A0000F999FECF92BD81BDF89A992780B5089586
:105A1000A6E1B0E044E050E00C943A2DA8E1B0E0FB
:105A200042E050E00C943A2D262FF999FECF92BD1A
:105A300081BDF89A019700B4021639F01FBA20BD53
:105A40000FB6F894FA9AF99A0FBE08950396272F85
:105A50000E94152D0E94142D252F0E94152D242FF4
:105A60000C94152D0196272F0E94152D0C94142DA2
:105A7000DC01CB01FC01F999FECF06C0F2BDE1BD0E
:105A8000F89A319600B40D9241505040B8F70895FD
:045A9000F894FFCFB8
:105A9400010208022808140A321E5522F322C822E1
:105AA4009222582201F0F1C66766379431303534BA
:105AB400979633F49091929395404D36393B05EE89
:0E5AC40004B8047F0412042B0444045D0400A3
:00000001FF
